{
  "transactions": [
    {
      "hash": "0xfb942d0b7cb6897b1febe55dea76effd9e0746575ab90ffc34f2e67d5c781671",
      "transactionType": "CREATE",
      "contractName": "BusinessFacet",
      "contractAddress": "0x9a4896D51094f70bC6AB58C3621E02AB453b753B",
      "function": null,
      "arguments": null,
      "transaction": {
        "type": "0x02",
        "from": "0x634176ecc95d326cae16829d923c1373df6ece95",
        "gas": "0x1bcf6b",
        "value": "0x0",
        "data": "0x608060405234801561001057600080fd5b506101b0806100206000396000f3fe608060405234801561001057600080fd5b50600436106100365760003560e01c806361d027b31461003b578063f0f442601461005f575b600080fd5b610043610074565b6040516001600160a01b03909116815260200160405180910390f35b61007261006d36600461014a565b61008d565b005b600061007e610126565b546001600160a01b0316919050565b7fc8fcad8db84d3cc18b4c41d551ea0ee66dd599cde068d998e57d5e09332c131f546001600160a01b031633146100fc5760405162461bcd60e51b815260206004820152600f60248201526e22a9291d1027b7363c9027bbb732b960891b604482015260640160405180910390fd5b80610105610126565b80546001600160a01b0319166001600160a01b039290921691909117905550565b7fde01a5bfcc452eb046d9acaa2ef866178ba6e0d7576d9d5da3f41a9accc2e8fe90565b60006020828403121561015c57600080fd5b81356001600160a01b038116811461017357600080fd5b939250505056fea26469706673582212206a1100a3bc79295862f33b3e2ce39c50e7ef088f825d99ce1ff90e0b75ce758164736f6c63430008120033",
        "nonce": "0x47a",
        "accessList": []
      },
      "additionalContracts": [],
      "isFixedGasLimit": false
    },
    {
      "hash": "0xf1722016c5b956a667b7572c3f2667646cd2512698eb58f3e9723133cbc614b5",
      "transactionType": "CALL",
      "contractName": null,
      "contractAddress": "0xbAF45B60F69eCa4616CdE172D3961C156946e831",
      "function": "diamondCut((address,uint8,bytes4[])[],address,bytes)",
      "arguments": [
        "[(0x9a4896D51094f70bC6AB58C3621E02AB453b753B, 0, [0x61d027b3])]",
        "0x0000000000000000000000000000000000000000",
        "0x00"
      ],
      "transaction": {
        "type": "0x02",
        "from": "0x634176ecc95d326cae16829d923c1373df6ece95",
        "to": "0xbaf45b60f69eca4616cde172d3961c156946e831",
        "gas": "0x18f13",
        "value": "0x0",
        "data": "0x1f931c1c000000000000000000000000000000000000000000000000000000000000006000000000000000000000000000000000000000000000000000000000000000000000000000000000000000000000000000000000000000000000000000000140000000000000000000000000000000000000000000000000000000000000000100000000000000000000000000000000000000000000000000000000000000200000000000000000000000009a4896d51094f70bc6ab58c3621e02ab453b753b00000000000000000000000000000000000000000000000000000000000000000000000000000000000000000000000000000000000000000000000000000060000000000000000000000000000000000000000000000000000000000000000161d027b30000000000000000000000000000000000000000000000000000000000000000000000000000000000000000000000000000000000000000000000010000000000000000000000000000000000000000000000000000000000000000",
        "nonce": "0x47b",
        "accessList": []
      },
      "additionalContracts": [],
      "isFixedGasLimit": false
    }
  ],
  "receipts": [
    {
      "transactionHash": "0xfb942d0b7cb6897b1febe55dea76effd9e0746575ab90ffc34f2e67d5c781671",
      "transactionIndex": "0x1",
      "blockHash": "0x8b5122e18cd16232b2b0034a689c126c9235e0d23808a86a172d82ca3f4d2caf",
      "blockNumber": "0x6b7fb70",
      "from": "0x634176EcC95D326CAe16829d923C1373Df6ECe95",
      "to": null,
      "cumulativeGasUsed": "0x12cdf1",
      "gasUsed": "0x12cdf1",
      "contractAddress": "0x9a4896D51094f70bC6AB58C3621E02AB453b753B",
      "logs": [],
      "status": "0x1",
      "logsBloom": "0x00000000000000000000000000000000000000000000000000000000000000000000000000000000000000000000000000000000000000000000000000000000000000000000000000000000000000000000000000000000000000000000000000000000000000000000000000000000000000000000000000000000000000000000000000000000000000000000000000000000000000000000000000000000000000000000000000000000000000000000000000000000000000000000000000000000000000000000000000000000000000000000000000000000000000000000000000000000000000000000000000000000000000000000000000000000",
      "type": "0x2",
      "effectiveGasPrice": "0x5f5e100"
    },
    {
      "transactionHash": "0xf1722016c5b956a667b7572c3f2667646cd2512698eb58f3e9723133cbc614b5",
      "transactionIndex": "0x1",
      "blockHash": "0xb695e223c2cd60341eee71542605c34f031cf67c789b156227e4bc3c03f4cec6",
      "blockNumber": "0x6b7fb8e",
      "from": "0x634176EcC95D326CAe16829d923C1373Df6ECe95",
      "to": "0xbAF45B60F69eCa4616CdE172D3961C156946e831",
      "cumulativeGasUsed": "0xafb18",
      "gasUsed": "0xafb18",
      "contractAddress": null,
      "logs": [
        {
          "address": "0xbAF45B60F69eCa4616CdE172D3961C156946e831",
          "topics": [
            "0x8faa70878671ccd212d20771b795c50af8fd3ff6cf27f4bde57e5d4de0aeb673"
          ],
          "data": "0x000000000000000000000000000000000000000000000000000000000000006000000000000000000000000000000000000000000000000000000000000000000000000000000000000000000000000000000000000000000000000000000140000000000000000000000000000000000000000000000000000000000000000100000000000000000000000000000000000000000000000000000000000000200000000000000000000000009a4896d51094f70bc6ab58c3621e02ab453b753b00000000000000000000000000000000000000000000000000000000000000000000000000000000000000000000000000000000000000000000000000000060000000000000000000000000000000000000000000000000000000000000000161d027b30000000000000000000000000000000000000000000000000000000000000000000000000000000000000000000000000000000000000000000000010000000000000000000000000000000000000000000000000000000000000000",
          "blockHash": "0xb695e223c2cd60341eee71542605c34f031cf67c789b156227e4bc3c03f4cec6",
          "blockNumber": "0x6b7fb8e",
          "transactionHash": "0xf1722016c5b956a667b7572c3f2667646cd2512698eb58f3e9723133cbc614b5",
          "transactionIndex": "0x1",
          "logIndex": "0x0",
          "removed": false
        }
      ],
      "status": "0x1",
      "logsBloom": "0x00000000000000000000000000000000000000000000000000000000000000000000000000000000000000000000000000000000000000000000000000000000000000000000000000000000000000000000000001000000000800000000000000000000000000000000000000000000000000000000000000000002000000000020000000000000000000000000000000000000000000000000000000000000000000008000000000000000000000000000000000000000000000000040000000000000000000000000000000000000000000000000000000000000000000000000000000000000000000000000000000000000000000000000000000000000",
      "type": "0x2",
      "effectiveGasPrice": "0x5f5e100"
    }
  ],
  "libraries": [],
  "pending": [],
  "returns": {},
  "timestamp": 1689750672,
  "chain": 42161,
  "multi": false,
  "commit": "4c365b0"
}