{
  "transactions": [
    {
      "hash": "0x915d89231d4d8980f02af39892384ea29a9c0db8f3df3f0146c38fabc95be12d",
      "transactionType": "CREATE",
      "contractName": "GlpAdapterFacet",
      "contractAddress": "0xC01A43c688022C4830176f3be22473CBbDc5c9c6",
      "function": null,
      "arguments": null,
      "transaction": {
        "type": "0x00",
        "from": "0x634176ecc95d326cae16829d923c1373df6ece95",
        "gas": "0x5ed819",
        "value": "0x0",
        "data": "0x608060405234801561001057600080fd5b50610a37806100206000396000f3fe60806040526004361061003f5760003560e01c80635caf9f6d146100445780637a711742146100665780639ce3afae14610086578063fc3a816014610099575b600080fd5b34801561005057600080fd5b5061006461005f36600461079c565b6100cb565b005b34801561007257600080fd5b50610064610081366004610801565b610231565b61006461009436600461079c565b6102c7565b3480156100a557600080fd5b506100b96100b436600461083d565b6104cf565b60405190815260200160405180910390f35b60006100da60a08601866108ab565b8101906100e791906108f8565b90506100f833826020015184610565565b6001600160a01b0384166101965761011660a0860160808701610971565b6040516355daf2f160e11b815260048101849052600060248201523360448201526001600160a01b03919091169063abb5e5e2906064016020604051808303816000875af115801561016c573d6000803e3d6000fd5b505050506040513d601f19601f820116820180604052508101906101909190610993565b5061022a565b6101a660a0860160808701610971565b6040516303cea95560e21b81526001600160a01b03868116600483015260248201859052600060448301523360648301529190911690630f3aa554906084016020604051808303816000875af1158015610204573d6000803e3d6000fd5b505050506040513d601f19601f820116820180604052508101906102289190610993565b505b5050505050565b600061024060a08301836108ab565b81019061024d91906108f8565b80516040516309f4173d60e11b81529192506001600160a01b0316906313e82e7a9061027f90339081906004016109ac565b6020604051808303816000875af115801561029e573d6000803e3d6000fd5b505050506040513d601f19601f820116820180604052508101906102c29190610993565b505050565b60006102d660a08601866108ab565b8101906102e391906108f8565b905060006001600160a01b0385166103825761030560a0870160808801610971565b6040516353a8aa0360e01b815260006004820181905260248201526001600160a01b0391909116906353a8aa0390349060440160206040518083038185885af1158015610356573d6000803e3d6000fd5b50505050506040513d601f19601f8201168201806040525081019061037b9190610993565b9050610451565b61038d338685610565565b61039c858360400151856105f0565b6103bb85733963ffc9dff443c2a94f21b129d429891e32ec18856105f0565b6103cb60a0870160808801610971565b60405163364e231160e01b81526001600160a01b038781166004830152602482018690526000604483018190526064830152919091169063364e2311906084016020604051808303816000875af115801561042a573d6000803e3d6000fd5b505050506040513d601f19601f8201168201806040525081019061044e9190610993565b90505b81602001516001600160a01b031663a9059cbb33836040518363ffffffff1660e01b81526004016104839291906109c6565b6020604051808303816000875af11580156104a2573d6000803e3d6000fd5b505050506040513d601f19601f820116820180604052508101906104c691906109df565b50505050505050565b6000806104df60a08701876108ab565b8101906104ec91906108f8565b80516040516370a0823160e01b81526001600160a01b0386811660048301529293509116906370a0823190602401602060405180830381865afa158015610537573d6000803e3d6000fd5b505050506040513d601f19601f8201168201806040525081019061055b9190610993565b9695505050505050565b610570838383610695565b6040516323b872dd60e01b81526001600160a01b038481166004830152306024830152604482018390528316906323b872dd906064015b6020604051808303816000875af11580156105c6573d6000803e3d6000fd5b505050506040513d601f19601f820116820180604052508101906105ea91906109df565b50505050565b604051636eb1769f60e11b815281906001600160a01b0385169063dd62ed3e9061062090309087906004016109ac565b602060405180830381865afa15801561063d573d6000803e3d6000fd5b505050506040513d601f19601f820116820180604052508101906106619190610993565b10156102c25760405163095ea7b360e01b81526001600160a01b0384169063095ea7b3906105a790859085906004016109c6565b604051636eb1769f60e11b815281906001600160a01b0384169063dd62ed3e906106c590879030906004016109ac565b602060405180830381865afa1580156106e2573d6000803e3d6000fd5b505050506040513d601f19601f820116820180604052508101906107069190610993565b10156102c257604051637965959960e11b81526001600160a01b0384169063f2cb2b329061073a90859085906004016109c6565b600060405180830381600087803b15801561075457600080fd5b505af11580156104c6573d6000803e3d6000fd5b600060c0828403121561077a57600080fd5b50919050565b80356001600160a01b038116811461079757600080fd5b919050565b600080600080608085870312156107b257600080fd5b84356001600160401b038111156107c857600080fd5b6107d487828801610768565b9450506107e360208601610780565b92506107f160408601610780565b9396929550929360600135925050565b60006020828403121561081357600080fd5b81356001600160401b0381111561082957600080fd5b61083584828501610768565b949350505050565b6000806000806080858703121561085357600080fd5b84356001600160401b0381111561086957600080fd5b61087587828801610768565b94505061088460208601610780565b925061089260408601610780565b91506108a060608601610780565b905092959194509250565b6000808335601e198436030181126108c257600080fd5b8301803591506001600160401b038211156108dc57600080fd5b6020019150368190038213156108f157600080fd5b9250929050565b60006060828403121561090a57600080fd5b604051606081018181106001600160401b038211171561093a57634e487b7160e01b600052604160045260246000fd5b60405261094683610780565b815261095460208401610780565b602082015261096560408401610780565b60408201529392505050565b60006020828403121561098357600080fd5b61098c82610780565b9392505050565b6000602082840312156109a557600080fd5b5051919050565b6001600160a01b0392831681529116602082015260400190565b6001600160a01b03929092168252602082015260400190565b6000602082840312156109f157600080fd5b8151801515811461098c57600080fdfea264697066735822122016cefd282cdbe738775a0e5ed7bcfceced0db395b08db53cc64ac0c68e6d6e1e64736f6c63430008120033",
        "nonce": "0x1fa"
      },
      "additionalContracts": [],
      "isFixedGasLimit": false
    },
    {
      "hash": "0x7115d73ae73ce118fc6cb0a7f8c422536f0452578005bd41f0cc9586204b5cf9",
      "transactionType": "CALL",
      "contractName": null,
      "contractAddress": "0xbAF45B60F69eCa4616CdE172D3961C156946e831",
      "function": "diamondCut((address,uint8,bytes4[])[],address,bytes)",
      "arguments": [
        "[(0xC01A43c688022C4830176f3be22473CBbDc5c9c6, 0, [0x9ce3afae, 0xfc3a8160, 0x7a711742, 0x5caf9f6d])]",
        "0x0000000000000000000000000000000000000000",
        "0x00"
      ],
      "transaction": {
        "type": "0x00",
        "from": "0x634176ecc95d326cae16829d923c1373df6ece95",
        "to": "0xbaf45b60f69eca4616cde172d3961c156946e831",
        "gas": "0x345bf",
        "value": "0x0",
        "data": "0x1f931c1c0000000000000000000000000000000000000000000000000000000000000060000000000000000000000000000000000000000000000000000000000000000000000000000000000000000000000000000000000000000000000000000001a000000000000000000000000000000000000000000000000000000000000000010000000000000000000000000000000000000000000000000000000000000020000000000000000000000000c01a43c688022c4830176f3be22473cbbdc5c9c60000000000000000000000000000000000000000000000000000000000000000000000000000000000000000000000000000000000000000000000000000006000000000000000000000000000000000000000000000000000000000000000049ce3afae00000000000000000000000000000000000000000000000000000000fc3a8160000000000000000000000000000000000000000000000000000000007a711742000000000000000000000000000000000000000000000000000000005caf9f6d0000000000000000000000000000000000000000000000000000000000000000000000000000000000000000000000000000000000000000000000010000000000000000000000000000000000000000000000000000000000000000",
        "nonce": "0x1fb"
      },
      "additionalContracts": [],
      "isFixedGasLimit": false
    }
  ],
  "receipts": [
    {
      "transactionHash": "0x915d89231d4d8980f02af39892384ea29a9c0db8f3df3f0146c38fabc95be12d",
      "transactionIndex": "0x1",
      "blockHash": "0x4213aa76a90ee30a2fd56e5e08fa2d11fcf8c5aa81f8e23dbf71ce5c91eab416",
      "blockNumber": "0x5c718ea",
      "from": "0x634176EcC95D326CAe16829d923C1373Df6ECe95",
      "to": null,
      "cumulativeGasUsed": "0x413783",
      "gasUsed": "0x413783",
      "contractAddress": "0xC01A43c688022C4830176f3be22473CBbDc5c9c6",
      "logs": [],
      "status": "0x1",
      "logsBloom": "0x00000000000000000000000000000000000000000000000000000000000000000000000000000000000000000000000000000000000000000000000000000000000000000000000000000000000000000000000000000000000000000000000000000000000000000000000000000000000000000000000000000000000000000000000000000000000000000000000000000000000000000000000000000000000000000000000000000000000000000000000000000000000000000000000000000000000000000000000000000000000000000000000000000000000000000000000000000000000000000000000000000000000000000000000000000000",
      "type": "0x0",
      "effectiveGasPrice": "0x5f5e100"
    },
    {
      "transactionHash": "0x7115d73ae73ce118fc6cb0a7f8c422536f0452578005bd41f0cc9586204b5cf9",
      "transactionIndex": "0x2",
      "blockHash": "0x2d119ec62d77e807698bbe6ef0a5ca342a5b62f9c60eb344170caee166d0b398",
      "blockNumber": "0x5c71907",
      "from": "0x634176EcC95D326CAe16829d923C1373Df6ECe95",
      "to": "0xbAF45B60F69eCa4616CdE172D3961C156946e831",
      "cumulativeGasUsed": "0x272d25",
      "gasUsed": "0xe6aae",
      "contractAddress": null,
      "logs": [
        {
          "address": "0xbAF45B60F69eCa4616CdE172D3961C156946e831",
          "topics": [
            "0x8faa70878671ccd212d20771b795c50af8fd3ff6cf27f4bde57e5d4de0aeb673"
          ],
          "data": "0x0000000000000000000000000000000000000000000000000000000000000060000000000000000000000000000000000000000000000000000000000000000000000000000000000000000000000000000000000000000000000000000001a000000000000000000000000000000000000000000000000000000000000000010000000000000000000000000000000000000000000000000000000000000020000000000000000000000000c01a43c688022c4830176f3be22473cbbdc5c9c60000000000000000000000000000000000000000000000000000000000000000000000000000000000000000000000000000000000000000000000000000006000000000000000000000000000000000000000000000000000000000000000049ce3afae00000000000000000000000000000000000000000000000000000000fc3a8160000000000000000000000000000000000000000000000000000000007a711742000000000000000000000000000000000000000000000000000000005caf9f6d0000000000000000000000000000000000000000000000000000000000000000000000000000000000000000000000000000000000000000000000010000000000000000000000000000000000000000000000000000000000000000",
          "blockHash": "0x2d119ec62d77e807698bbe6ef0a5ca342a5b62f9c60eb344170caee166d0b398",
          "blockNumber": "0x5c71907",
          "transactionHash": "0x7115d73ae73ce118fc6cb0a7f8c422536f0452578005bd41f0cc9586204b5cf9",
          "transactionIndex": "0x2",
          "logIndex": "0x6",
          "removed": false
        }
      ],
      "status": "0x1",
      "logsBloom": "0x00000000000000000000000000000000000000000000000000000000000000000000000000000000000000000000000000000000000000000000000000000000000000000000000000000000000000000000000001000000000800000000000000000000000000000000000000000000000000000000000000000002000000000020000000000000000000000000000000000000000000000000000000000000000000008000000000000000000000000000000000000000000000000040000000000000000000000000000000000000000000000000000000000000000000000000000000000000000000000000000000000000000000000000000000000000",
      "type": "0x0",
      "effectiveGasPrice": "0x5f5e100"
    }
  ],
  "libraries": [],
  "pending": [],
  "returns": {},
  "timestamp": 1685687626,
  "chain": 42161,
  "multi": false,
  "commit": "daeddd0"
}