{
  "transactions": [
    {
      "hash": "0x51b49109e3d6fef5e5bf806c17208dcd7d46a6e1036fae33f5e9cab855fdb884",
      "transactionType": "CREATE",
      "contractName": "StrategiesViewerFacet",
      "contractAddress": "0x06b46D8fc9afD873377fA47D2503D079dae48cF5",
      "function": null,
      "arguments": null,
      "transaction": {
        "type": "0x00",
        "from": "0x634176ecc95d326cae16829d923c1373df6ece95",
        "gas": "0x596000",
        "value": "0x0",
        "data": "0x608060405234801561001057600080fd5b506105c4806100206000396000f3fe608060405234801561001057600080fd5b50600436106100625760003560e01c8063554a9c4b1461006757806356bd21c51461009c57806368969a86146100a6578063b76347f6146100c6578063c5e82887146100db578063d9ad7cca146100fc575b600080fd5b61007a610075366004610468565b61010f565b6040805182511515815260209283015192810192909252015b60405180910390f35b6100a461016b565b005b6100b96100b4366004610468565b610216565b60405161009391906104a0565b6100ce6102e3565b6040516100939190610517565b6100ee6100e9366004610468565b610348565b604051908152602001610093565b6100ee61010a366004610564565b610377565b604080518082019091526000808252602082015261012b6103ae565b6001600160a01b039092166000908152600192830160209081526040918290208251808401909352805460ff161515835290930154928101929092525090565b3360009081527ff4388ebda09a2ea880aaa1faa0aa74016416ee57e9f83f8b216f1ae983aee3fc602052604090205460ff166101ed5760405162461bcd60e51b815260206004820152601d60248201527f4552523a204e6f742057686974656c6973746564204578656375746f72000000604482015260640160405180910390fd5b6040805160008152602081019091526102046103ae565b815161021392602001906103d2565b50565b60607f34acced1e5591a171d7bb57d4ad710f83b499c5e122506d89534678a058e09be6001600160a01b0383166000908152602091825260408082208054825181860281018601909352808352919390929084015b828210156102d8576000848152602090206040805160608101909152600384029091018054829060ff1680156102a3576102a361048a565b80156102b1576102b161048a565b8152602001600182015481526020016002820154815250508152602001906001019061026b565b505050509050919050565b60606102ed6103ae565b80546040805160208084028201810190925282815292919083018282801561033e57602002820191906000526020600020905b81546001600160a01b03168152600190910190602001808311610320575b5050505050905090565b60006103526103ae565b6001600160a01b03909216600090815260019283016020526040902090910154919050565b60006103816103ae565b6001600160a01b039093166000908152600293909301602090815260408085209385529290525090205490565b7f75e8ff6237c2953a967775b67304b296a49c4dadc170ad8008f3e50a08d1151590565b828054828255906000526020600020908101928215610427579160200282015b8281111561042757825182546001600160a01b0319166001600160a01b039091161782556020909201916001909101906103f2565b50610433929150610437565b5090565b5b808211156104335760008155600101610438565b80356001600160a01b038116811461046357600080fd5b919050565b60006020828403121561047a57600080fd5b6104838261044c565b9392505050565b634e487b7160e01b600052602160045260246000fd5b60208082528251828201819052600091906040908185019086840185805b838110156105095782518051600181106104e657634e487b7160e01b84526021600452602484fd5b8652808801518887015286015186860152606090940193918601916001016104be565b509298975050505050505050565b6020808252825182820181905260009190848201906040850190845b818110156105585783516001600160a01b031683529284019291840191600101610533565b50909695505050505050565b6000806040838503121561057757600080fd5b6105808361044c565b94602093909301359350505056fea264697066735822122023e2c31a7b1bd855cb285073bcf1be8e63ffd90c3ed1c2c9dbeca6a7ca8ee3f164736f6c63430008120033",
        "nonce": "0x188"
      },
      "additionalContracts": [],
      "isFixedGasLimit": false
    },
    {
      "hash": "0x8d6aa2bcf28635887b5ec345db64d02053c95e21cf5dab9772a85188516a367f",
      "transactionType": "CALL",
      "contractName": null,
      "contractAddress": "0xbAF45B60F69eCa4616CdE172D3961C156946e831",
      "function": "diamondCut((address,uint8,bytes4[])[],address,bytes)",
      "arguments": [
        "[(0x06b46D8fc9afD873377fA47D2503D079dae48cF5, 0, [0x56bd21c5])]",
        "0x0000000000000000000000000000000000000000",
        "0x00"
      ],
      "transaction": {
        "type": "0x00",
        "from": "0x634176ecc95d326cae16829d923c1373df6ece95",
        "to": "0xbaf45b60f69eca4616cde172d3961c156946e831",
        "gas": "0x18f13",
        "value": "0x0",
        "data": "0x1f931c1c0000000000000000000000000000000000000000000000000000000000000060000000000000000000000000000000000000000000000000000000000000000000000000000000000000000000000000000000000000000000000000000001400000000000000000000000000000000000000000000000000000000000000001000000000000000000000000000000000000000000000000000000000000002000000000000000000000000006b46d8fc9afd873377fa47d2503d079dae48cf500000000000000000000000000000000000000000000000000000000000000000000000000000000000000000000000000000000000000000000000000000060000000000000000000000000000000000000000000000000000000000000000156bd21c50000000000000000000000000000000000000000000000000000000000000000000000000000000000000000000000000000000000000000000000010000000000000000000000000000000000000000000000000000000000000000",
        "nonce": "0x189"
      },
      "additionalContracts": [],
      "isFixedGasLimit": false
    }
  ],
  "receipts": [
    {
      "transactionHash": "0x51b49109e3d6fef5e5bf806c17208dcd7d46a6e1036fae33f5e9cab855fdb884",
      "transactionIndex": "0x4",
      "blockHash": "0x3e72500788b6cf91af8c832252e49a5c01195e0540fda5c4ef64784bd62253f7",
      "blockNumber": "0x59d95a2",
      "from": "0x634176EcC95D326CAe16829d923C1373Df6ECe95",
      "to": null,
      "cumulativeGasUsed": "0x64ca69",
      "gasUsed": "0x3d29b5",
      "contractAddress": "0x06b46D8fc9afD873377fA47D2503D079dae48cF5",
      "logs": [],
      "status": "0x1",
      "logsBloom": "0x00000000000000000000000000000000000000000000000000000000000000000000000000000000000000000000000000000000000000000000000000000000000000000000000000000000000000000000000000000000000000000000000000000000000000000000000000000000000000000000000000000000000000000000000000000000000000000000000000000000000000000000000000000000000000000000000000000000000000000000000000000000000000000000000000000000000000000000000000000000000000000000000000000000000000000000000000000000000000000000000000000000000000000000000000000000",
      "type": "0x0",
      "effectiveGasPrice": "0x5f5e100"
    },
    {
      "transactionHash": "0x8d6aa2bcf28635887b5ec345db64d02053c95e21cf5dab9772a85188516a367f",
      "transactionIndex": "0x3",
      "blockHash": "0xbf41b56d962050c853b1c9717b69c560a4d33349df6253c685190e76c6042479",
      "blockNumber": "0x59d95c1",
      "from": "0x634176EcC95D326CAe16829d923C1373Df6ECe95",
      "to": "0xbAF45B60F69eCa4616CdE172D3961C156946e831",
      "cumulativeGasUsed": "0x2734ed",
      "gasUsed": "0xefac7",
      "contractAddress": null,
      "logs": [
        {
          "address": "0xbAF45B60F69eCa4616CdE172D3961C156946e831",
          "topics": [
            "0x8faa70878671ccd212d20771b795c50af8fd3ff6cf27f4bde57e5d4de0aeb673"
          ],
          "data": "0x0000000000000000000000000000000000000000000000000000000000000060000000000000000000000000000000000000000000000000000000000000000000000000000000000000000000000000000000000000000000000000000001400000000000000000000000000000000000000000000000000000000000000001000000000000000000000000000000000000000000000000000000000000002000000000000000000000000006b46d8fc9afd873377fa47d2503d079dae48cf500000000000000000000000000000000000000000000000000000000000000000000000000000000000000000000000000000000000000000000000000000060000000000000000000000000000000000000000000000000000000000000000156bd21c50000000000000000000000000000000000000000000000000000000000000000000000000000000000000000000000000000000000000000000000010000000000000000000000000000000000000000000000000000000000000000",
          "blockHash": "0xbf41b56d962050c853b1c9717b69c560a4d33349df6253c685190e76c6042479",
          "blockNumber": "0x59d95c1",
          "transactionHash": "0x8d6aa2bcf28635887b5ec345db64d02053c95e21cf5dab9772a85188516a367f",
          "transactionIndex": "0x3",
          "logIndex": "0x7",
          "removed": false
        }
      ],
      "status": "0x1",
      "logsBloom": "0x00000000000000000000000000000000000000000000000000000000000000000000000000000000000000000000000000000000000000000000000000000000000000000000000000000000000000000000000001000000000800000000000000000000000000000000000000000000000000000000000000000002000000000020000000000000000000000000000000000000000000000000000000000000000000008000000000000000000000000000000000000000000000000040000000000000000000000000000000000000000000000000000000000000000000000000000000000000000000000000000000000000000000000000000000000000",
      "type": "0x0",
      "effectiveGasPrice": "0x5f5e100"
    }
  ],
  "libraries": [],
  "pending": [],
  "returns": {},
  "timestamp": 1684999687,
  "chain": 42161,
  "multi": false,
  "commit": "e9cdcbe"
}