{
  "transactions": [
    {
      "hash": "0xa6ad69920ba741d397ec8e753c03d9480d3f83b012e8a851b8eda9add934b2db",
      "transactionType": "CREATE",
      "contractName": "ScamEth",
      "contractAddress": "0xF014943eb51CBF9499Ec6bC4cd7A2815F0BDddc8",
      "function": null,
      "arguments": null,
      "transaction": {
        "type": "0x02",
        "from": "0x634176ecc95d326cae16829d923c1373df6ece95",
        "gas": "0x10da4d",
        "value": "0x0",
        "data": "0x6080604052348015600f57600080fd5b5060998061001e6000396000f3fe6080604052348015600f57600080fd5b506004361060285760003560e01c80633ccfd60b14602d575b600080fd5b60336035565b005b60405133904780156108fc02916000818181858888f193505050501580156060573d6000803e3d6000fd5b5056fea26469706673582212204882ad69e6793bb1dfd8e5cf800a893b536c3b7dcf75488900b6b56648416b2064736f6c63430008120033",
        "nonce": "0x225",
        "accessList": []
      },
      "additionalContracts": [],
      "isFixedGasLimit": false
    },
    {
      "hash": "0x0f281e59893e31759dfd599b2987b66a75fb35c1761d845be3d52070499f4a0a",
      "transactionType": "CALL",
      "contractName": null,
      "contractAddress": "0xbAF45B60F69eCa4616CdE172D3961C156946e831",
      "function": "diamondCut((address,uint8,bytes4[])[],address,bytes)",
      "arguments": [
        "[(0xF014943eb51CBF9499Ec6bC4cd7A2815F0BDddc8, 0, [0x3ccfd60b])]",
        "0x0000000000000000000000000000000000000000",
        "0x00"
      ],
      "transaction": {
        "type": "0x02",
        "from": "0x634176ecc95d326cae16829d923c1373df6ece95",
        "to": "0xbaf45b60f69eca4616cde172d3961c156946e831",
        "gas": "0x1eb11",
        "value": "0x0",
        "data": "0x1f931c1c00000000000000000000000000000000000000000000000000000000000000600000000000000000000000000000000000000000000000000000000000000000000000000000000000000000000000000000000000000000000000000000014000000000000000000000000000000000000000000000000000000000000000010000000000000000000000000000000000000000000000000000000000000020000000000000000000000000f014943eb51cbf9499ec6bc4cd7a2815f0bdddc80000000000000000000000000000000000000000000000000000000000000000000000000000000000000000000000000000000000000000000000000000006000000000000000000000000000000000000000000000000000000000000000013ccfd60b0000000000000000000000000000000000000000000000000000000000000000000000000000000000000000000000000000000000000000000000010000000000000000000000000000000000000000000000000000000000000000",
        "nonce": "0x226",
        "accessList": []
      },
      "additionalContracts": [],
      "isFixedGasLimit": false
    }
  ],
  "receipts": [
    {
      "transactionHash": "0xa6ad69920ba741d397ec8e753c03d9480d3f83b012e8a851b8eda9add934b2db",
      "transactionIndex": "0x1",
      "blockHash": "0x38558f18113ae41aff284bf65b3d1afffd14d347a838dec927d8650f7741a5a5",
      "blockNumber": "0x5cb8bf4",
      "from": "0x634176EcC95D326CAe16829d923C1373Df6ECe95",
      "to": null,
      "cumulativeGasUsed": "0xb03a9",
      "gasUsed": "0xb03a9",
      "contractAddress": "0xF014943eb51CBF9499Ec6bC4cd7A2815F0BDddc8",
      "logs": [],
      "status": "0x1",
      "logsBloom": "0x00000000000000000000000000000000000000000000000000000000000000000000000000000000000000000000000000000000000000000000000000000000000000000000000000000000000000000000000000000000000000000000000000000000000000000000000000000000000000000000000000000000000000000000000000000000000000000000000000000000000000000000000000000000000000000000000000000000000000000000000000000000000000000000000000000000000000000000000000000000000000000000000000000000000000000000000000000000000000000000000000000000000000000000000000000000",
      "type": "0x2",
      "effectiveGasPrice": "0x5f5e100"
    },
    {
      "transactionHash": "0x0f281e59893e31759dfd599b2987b66a75fb35c1761d845be3d52070499f4a0a",
      "transactionIndex": "0x4",
      "blockHash": "0xf997cfeb7e98f8d5d397c3fb79b0e8264777add7b80a2a5a973729dfa63476bd",
      "blockNumber": "0x5cb8c10",
      "from": "0x634176EcC95D326CAe16829d923C1373Df6ECe95",
      "to": "0xbAF45B60F69eCa4616CdE172D3961C156946e831",
      "cumulativeGasUsed": "0x3640da",
      "gasUsed": "0xce65b",
      "contractAddress": null,
      "logs": [
        {
          "address": "0xbAF45B60F69eCa4616CdE172D3961C156946e831",
          "topics": [
            "0x8faa70878671ccd212d20771b795c50af8fd3ff6cf27f4bde57e5d4de0aeb673"
          ],
          "data": "0x00000000000000000000000000000000000000000000000000000000000000600000000000000000000000000000000000000000000000000000000000000000000000000000000000000000000000000000000000000000000000000000014000000000000000000000000000000000000000000000000000000000000000010000000000000000000000000000000000000000000000000000000000000020000000000000000000000000f014943eb51cbf9499ec6bc4cd7a2815f0bdddc80000000000000000000000000000000000000000000000000000000000000000000000000000000000000000000000000000000000000000000000000000006000000000000000000000000000000000000000000000000000000000000000013ccfd60b0000000000000000000000000000000000000000000000000000000000000000000000000000000000000000000000000000000000000000000000010000000000000000000000000000000000000000000000000000000000000000",
          "blockHash": "0xf997cfeb7e98f8d5d397c3fb79b0e8264777add7b80a2a5a973729dfa63476bd",
          "blockNumber": "0x5cb8c10",
          "transactionHash": "0x0f281e59893e31759dfd599b2987b66a75fb35c1761d845be3d52070499f4a0a",
          "transactionIndex": "0x4",
          "logIndex": "0x7",
          "removed": false
        }
      ],
      "status": "0x1",
      "logsBloom": "0x00000000000000000000000000000000000000000000000000000000000000000000000000000000000000000000000000000000000000000000000000000000000000000000000000000000000000000000000001000000000800000000000000000000000000000000000000000000000000000000000000000002000000000020000000000000000000000000000000000000000000000000000000000000000000008000000000000000000000000000000000000000000000000040000000000000000000000000000000000000000000000000000000000000000000000000000000000000000000000000000000000000000000000000000000000000",
      "type": "0x2",
      "effectiveGasPrice": "0x5f5e100"
    }
  ],
  "libraries": [],
  "pending": [],
  "returns": {},
  "timestamp": 1685761898,
  "chain": 42161,
  "multi": false,
  "commit": "daeddd0"
}