{
  "transactions": [
    {
      "hash": "0x1bbd708bdf4db312ddc99b97ab293cd61c84e693d7281d132aa73bb866a072b4",
      "transactionType": "CREATE",
      "contractName": "LIFIValidator",
      "contractAddress": "0xCA177fE0d41C296a35dF964BaBb64D1c69F56b37",
      "function": null,
      "arguments": null,
      "transaction": {
        "type": "0x02",
        "from": "0x634176ecc95d326cae16829d923c1373df6ece95",
        "gas": "0x2a8016",
        "value": "0x0",
        "data": "0x608060405234801561001057600080fd5b50610501806100206000396000f3fe608060405234801561001057600080fd5b506004361061002b5760003560e01c80630eb16ff114610030575b600080fd5b61004361003e366004610103565b610057565b604051901515815260200160405180910390f35b60008061009984848080601f0160208091040260200160405190810160405280939291908181526020018383808284376000920191909152506100b792505050565b9050336001600160a01b038216036100b057600191505b5092915050565b600080828060200190518101906100ce91906102a0565b90506100d9816100e0565b9392505050565b600081604001518060200190518101906100fa919061044c565b95945050505050565b6000806020838503121561011657600080fd5b82356001600160401b038082111561012d57600080fd5b818501915085601f83011261014157600080fd5b81358181111561015057600080fd5b86602082850101111561016257600080fd5b60209290920196919550909350505050565b634e487b7160e01b600052604160045260246000fd5b604051608081016001600160401b03811182821017156101ac576101ac610174565b60405290565b604051606081016001600160401b03811182821017156101ac576101ac610174565b604051601f8201601f191681016001600160401b03811182821017156101fc576101fc610174565b604052919050565b6001600160a01b038116811461021957600080fd5b50565b600082601f83011261022d57600080fd5b81516001600160401b0381111561024657610246610174565b602061025a601f8301601f191682016101d4565b828152858284870101111561026e57600080fd5b60005b8381101561028c578581018301518282018401528201610271565b506000928101909101919091529392505050565b600060208083850312156102b357600080fd5b82516001600160401b03808211156102ca57600080fd5b90840190608082870312156102de57600080fd5b6102e661018a565b82516102f181610204565b8152828401518281111561030457600080fd5b6103108882860161021c565b858301525060408301518281111561032757600080fd5b6103338882860161021c565b60408301525060608301518281111561034b57600080fd5b92909201916060838803121561036057600080fd5b6103686101b2565b835161037381610204565b8152838501518381111561038657600080fd5b8401601f8101891361039757600080fd5b8051848111156103a9576103a9610174565b8060051b6103b88882016101d4565b918252828101880191888101908c8411156103d257600080fd5b89850192505b8383101561040e578251888111156103f05760008081fd5b6103fe8e8c8389010161021c565b83525091890191908901906103d8565b808a8701525050505050604084015194508285111561042c57600080fd5b6104388886860161021c565b604082015260608201529695505050505050565b6000806000806080858703121561046257600080fd5b8451935060208501516001600160401b038082111561048057600080fd5b61048c8883890161021c565b945060408701519150808211156104a257600080fd5b506104af8782880161021c565b92505060608501516104c081610204565b93969295509093505056fea26469706673582212203177a830c34a693f30f13291d5ef3de520273be590ee761b6636972a3737aaa264736f6c63430008120033",
        "nonce": "0x3c9",
        "accessList": []
      },
      "additionalContracts": [],
      "isFixedGasLimit": false
    },
    {
      "hash": "0x3296b8c87a3ed9dd85b95fcaff8393acc22a3bbc770687e1daf4281f93026f40",
      "transactionType": "CALL",
      "contractName": null,
      "contractAddress": "0xbAF45B60F69eCa4616CdE172D3961C156946e831",
      "function": "diamondCut((address,uint8,bytes4[])[],address,bytes)",
      "arguments": [
        "[(0xCA177fE0d41C296a35dF964BaBb64D1c69F56b37, 0, [0x0eb16ff1])]",
        "0x0000000000000000000000000000000000000000",
        "0x00"
      ],
      "transaction": {
        "type": "0x02",
        "from": "0x634176ecc95d326cae16829d923c1373df6ece95",
        "to": "0xbaf45b60f69eca4616cde172d3961c156946e831",
        "gas": "0x18f13",
        "value": "0x0",
        "data": "0x1f931c1c00000000000000000000000000000000000000000000000000000000000000600000000000000000000000000000000000000000000000000000000000000000000000000000000000000000000000000000000000000000000000000000014000000000000000000000000000000000000000000000000000000000000000010000000000000000000000000000000000000000000000000000000000000020000000000000000000000000ca177fe0d41c296a35df964babb64d1c69f56b370000000000000000000000000000000000000000000000000000000000000000000000000000000000000000000000000000000000000000000000000000006000000000000000000000000000000000000000000000000000000000000000010eb16ff10000000000000000000000000000000000000000000000000000000000000000000000000000000000000000000000000000000000000000000000010000000000000000000000000000000000000000000000000000000000000000",
        "nonce": "0x3ca",
        "accessList": []
      },
      "additionalContracts": [],
      "isFixedGasLimit": false
    }
  ],
  "receipts": [
    {
      "transactionHash": "0x1bbd708bdf4db312ddc99b97ab293cd61c84e693d7281d132aa73bb866a072b4",
      "transactionIndex": "0x2",
      "blockHash": "0x559b0faaac1b687dc98a149d83b6968bac7137c3c9ccf666ae83433cc383853f",
      "blockNumber": "0x6844354",
      "from": "0x634176EcC95D326CAe16829d923C1373Df6ECe95",
      "to": null,
      "cumulativeGasUsed": "0x295581",
      "gasUsed": "0x1d6eb5",
      "contractAddress": "0xCA177fE0d41C296a35dF964BaBb64D1c69F56b37",
      "logs": [],
      "status": "0x1",
      "logsBloom": "0x00000000000000000000000000000000000000000000000000000000000000000000000000000000000000000000000000000000000000000000000000000000000000000000000000000000000000000000000000000000000000000000000000000000000000000000000000000000000000000000000000000000000000000000000000000000000000000000000000000000000000000000000000000000000000000000000000000000000000000000000000000000000000000000000000000000000000000000000000000000000000000000000000000000000000000000000000000000000000000000000000000000000000000000000000000000",
      "type": "0x2",
      "effectiveGasPrice": "0x5f5e100"
    },
    {
      "transactionHash": "0x3296b8c87a3ed9dd85b95fcaff8393acc22a3bbc770687e1daf4281f93026f40",
      "transactionIndex": "0x1",
      "blockHash": "0xf415e0af95535081e5f3285ddfac0771c618af32791b5768da36b64d1c609851",
      "blockNumber": "0x684436e",
      "from": "0x634176EcC95D326CAe16829d923C1373Df6ECe95",
      "to": "0xbAF45B60F69eCa4616CdE172D3961C156946e831",
      "cumulativeGasUsed": "0x8a590",
      "gasUsed": "0x8a590",
      "contractAddress": null,
      "logs": [
        {
          "address": "0xbAF45B60F69eCa4616CdE172D3961C156946e831",
          "topics": [
            "0x8faa70878671ccd212d20771b795c50af8fd3ff6cf27f4bde57e5d4de0aeb673"
          ],
          "data": "0x00000000000000000000000000000000000000000000000000000000000000600000000000000000000000000000000000000000000000000000000000000000000000000000000000000000000000000000000000000000000000000000014000000000000000000000000000000000000000000000000000000000000000010000000000000000000000000000000000000000000000000000000000000020000000000000000000000000ca177fe0d41c296a35df964babb64d1c69f56b370000000000000000000000000000000000000000000000000000000000000000000000000000000000000000000000000000000000000000000000000000006000000000000000000000000000000000000000000000000000000000000000010eb16ff10000000000000000000000000000000000000000000000000000000000000000000000000000000000000000000000000000000000000000000000010000000000000000000000000000000000000000000000000000000000000000",
          "blockHash": "0xf415e0af95535081e5f3285ddfac0771c618af32791b5768da36b64d1c609851",
          "blockNumber": "0x684436e",
          "transactionHash": "0x3296b8c87a3ed9dd85b95fcaff8393acc22a3bbc770687e1daf4281f93026f40",
          "transactionIndex": "0x1",
          "logIndex": "0x0",
          "removed": false
        }
      ],
      "status": "0x1",
      "logsBloom": "0x00000000000000000000000000000000000000000000000000000000000000000000000000000000000000000000000000000000000000000000000000000000000000000000000000000000000000000000000001000000000800000000000000000000000000000000000000000000000000000000000000000002000000000020000000000000000000000000000000000000000000000000000000000000000000008000000000000000000000000000000000000000000000000040000000000000000000000000000000000000000000000000000000000000000000000000000000000000000000000000000000000000000000000000000000000000",
      "type": "0x2",
      "effectiveGasPrice": "0x5f5e100"
    }
  ],
  "libraries": [],
  "pending": [],
  "returns": {},
  "timestamp": 1688878613,
  "chain": 42161,
  "multi": false,
  "commit": "19a018d"
}